:100B5C0041542B43574D4F44453D310D0A004154F0
:100B6C002B4349504D55583D300D0A0041542B43F1
:100B7C00574D4F44453F0D0A0041542B4349504DAE
:100B8C0055583F0D0A0041542B4349504D4F444595
:100B9C003D310D0A0041542B4349504D4F44453FC4
:100BAC000D0A0041542B43574A41503F0D0A004156
:100BBC00542B43495053544152543D2254435022D8
:100BCC002C223139322E3136382E3135352E312218
:100BDC002C383838380D0A0041542B4349505354A3
:100BEC00415455530D0A0041542B43495053454E23
:100BFC00440D0A002530345820000D0A002B2B2BF5
:010C0C0000E7
:0A0F41000825EECC0200000000FFBE
:100EFE00120F19120D27120D9B7B007A0079251205
:0B0F0E000E017FD07E07120EC280EBA8
:100F190053877F759850759CFD438E04438E01431A
:090F29008E10D2ACD28ED29922B6
:100D27007F507EC3120EE47BFF7A0B795C12086258
:100D3700120EE07BFF7A0B796A120862120EE07BD3
:100D4700FF7A0B7978120862120EE07BFF7A0B7933
:100D570085120862120EE07BFF7A0B799212086205
:100D6700120EE07BFF7A0B79A1120862120EE07B6C
:100D7700FF7A0B79AF120862120EE07BFF7A0B79CC
:100D8700BB1208627F987E3A120EE47BFF7A0B79DA
:040D9700E402086208
:060E01008B088A09890A32
:100E07007BFF7A0B79F3120862120EE0E4F50BAB65
:100E170008AA09A90A850B82758300120C0DF50F24
:100E27007BFF7A0C7900120862050BE50BC3940867
:100E370040DD7BFF7A0C79061208627FE87E031299
:0B0E47000EE47BFF7A0C7909020862C0
:100E5200E4F508752E0220A107AF2E052EEF70F6DD
:100E6200120F4C120F4C120F4CE4F53130A10375E6
:100E72003101752E0230A107AF2E052EEF70F6E577
:100E82002E64016013E53725E0F537E53142370579
:080E920008E508C3940840BB09
:010E9A002235
:100D9B00C2A1120F32D2A1120F4C120F4CD2A120B2
:100DAB00A153752E0220A107AF2E052EEF70F675FD
:100DBB002E0230A107AF2E052EEF70F6120E5285C4
:100DCB003734120E52853735120E52853724120ED8
:100DDB005285372D120E52853730D2A1E524252DA1
:100DEB0025342535F531B5300C85342885352985E5
:060DFB00242A852D2B22A5
:100EC200EF1F70011E144E60147C027D58D3ED9406
:0D0ED20000EC940040EAED1D70F31C80F070
:010EDF0022F0
:070F4C000000007F18DFFE2A
:010F5300227B
:0E0F320000007F017EC27D9FDDFEDEFCDFFA47
:010F4000228E
:040EE0007FF47E011C
:100EE400EF1FAA0670011E4A600F7D66EDD39400C1
:090EF40040EE7C03DCFE1D80F3DE
:010EFD0022D2
:03000000020C9B54
:0C0C9B00787FE4F6D8FD758137020CE28A
:100C0D00BB010CE58229F582E5833AF583E022509C
:100C1D0006E92582F8E622BBFE06E92582F8E222E6
:0D0C2D00E58229F582E5833AF583E4932200
:10080000E51B240FF8E6051B22780C300702780F51
:10081000E475F001120C65020C3A2000EB7F2ED239
:10082000008018EF540F2490D43440D4FF30040BD0
:10083000EF24BFB41A0050032461FFE51C600215C9
:100840001C051FE51F7002051E30070D780CE475AE
:10085000F001120C65EF020C53020E9B7403D207D9
:100860008003E4C207F51B8B0C8A0D890EE4F51C8E
:10087000F51EF51FE51C60077F2012083B80F5750B
:100880001DFFC201C200C202C203C205C206C208E5
:10089000120809FF700D3007057F0012084CAF1FCA
:1008A000AE1E22B4255FC2D5C204120809FF24D0AF
:1008B000B40A00501A75F00A781C30D50508B6FF46
:1008C0000106C6A426F620D5047002D20380D924DE
:1008D000CFB41A00EF5004C2E5D204020A4CD20190
:1008E00080C6D20080C0D20280BCD2D580BAD205E8
:1008F00080B47F2012083B2002077401B51C004021
:10090000F1120800FF12083B020874D208D20680D8
:1009100095120800FB120800FA120800F94A4B7001
:1009200006791D7A0B7BFF20022EE51C602A7E00D3
:100930008E82758300120C0D60060EEE651D70F040
:10094000C2D5EBC0E0EAC0E0E9C0E0EE120A93D005
:10095000E0F9D0E0FAD0E0FB120C3AFF60AAEBC05D
:10096000E0EAC0E0E9C0E012083BD0E02401F9D0A1
:10097000E03400FAD0E0FBE51D0460DCD51DD98031
:10098000877BFF7A0A798FD202809C791080027966
:1009900008C206C2088008D2D5790A8004790AC242
:1009A000D5E51D047002F51DE4FAFDFEFF120800F6
:1009B000FC7B08200113120800FD7B1030000A1296
:1009C0000800FE120800FF7B20EC3382D592D55040
:1009D00013C3E43000069FFFE49EFEE42001039D64
:1009E000FDE49CFCE4CBF8C201EC700CCFCECDCC86
:1009F000E824F8F870F38017C3EF33FFEE33FEED11
:100A000033FDEC33FCEB33FB994002FB0FD8E9EBF1
:100A1000300105F8D0E0C448B201C0E00AEC4D4E08
:100A20004F78207B0070C2EAB51D0040BCC0E012C8
:100A30000A95D0F0D0E0200104C4C0E0C4B201C0E7
:100A4000F0120824D0F0D5F0EB020874120C7509EE
:100A50001153098B5808E24C08DE42098F4F099761
:0F0A60004409974908F743099D550981460981C3
:100A6F00450981470B3D5008E62D08EA2E090D2B4D
:100A7F0008EE23090B200B262A08A64800000905BB
:100A8F003F3F3F00790AA2D5200314300509B91062
:100A9F00020404B9080104A2D52006025001042063
:100AAF0002689202B51C005034C0E07F2030031959
:100ABF007F30A20272067205500F120AECC202C2F8
:100ACF0006C205C2087F30800F300503E9C0E0126F
:100ADF00083B300503D0E0F9D0E0B51CCC3005174A
:100AEF007F30B9100C12083B7F583004077F788095
:100AFF0003B9080312083B3002057F2D02083B7F24
:100B0F00202008F87F2B2006F322920280CF286E38
:100B1F00756C6C2900D2011208003001F8C20178FF
:100B2F001C30D50108F60208A62D5043495812086B
:100B3F00002403B405004001E4900B389312082CF5
:0D0B4F00743A12082CD203751C0402098BA5
:100CA700020EFEE493A3F8E493A34003F68001F257
:100CB70008DFF48029E493A3F85407240CC8C3334E
:100CC700C4540F4420C8834004F456800146F6DF1D
:100CD700E4800B0102040810204080900F41E47E5D
:100CE700019360BCA3FF543F30E509541FFEE49312
:100CF700A360010ECF54C025E060A840B8E493A3D9
:100D0700FAE493A3F8E493A3C8C582C8CAC583CA03
:100D1700F0A3C8C582C8CAC583CADFE9DEE780BEBB
:010F4B0000A5
:100C3A00BB010689828A83E0225002E722BBFE02B8
:090C4A00E32289828A83E49322EB
:100C5300BB010689828A83F0225002F722BBFE0180
:020C6300F3227A
:100C6500FAE6FB0808E6F925F0F618E6CA3AF62290
:100C7500D083D082F8E4937012740193700DA3A30E
:100C850093F8740193F5828883E473740293686022
:060C9500EFA3A3A380DF22
:100E9B00EFB40A07740D120EA6740A309811A899B4
:100EAB00B8130CC2983098FDA899C298B811F630B7
:070EBB0099FDC299F599228F
:00000001FF
