:1003820041542B43574D4F44453D310D0A004154D2
:100392002B4349504D55583D300D0A0041542B43D3
:1003A200574D4F44453F0D0A0041542B4349504D90
:1003B20055583F0D0A0041542B4349504D4F444577
:1003C2003D310D0A0041542B4349504D4F44453FA6
:1003D2000D0A0041542B43574A41503F0D0A004138
:1003E200542B43495053544152543D2254435022BA
:1003F2002C223139322E3136382E3135352E3122FA
:100402002C383838380D0A0041542B434950535484
:10041200415455530D0A0041542B43495053454E04
:10042200440D0A002530345820000D0A002B2B2BD6
:0104320000C9
:0A078E000825EECC0200000000FF79
:100731001207661204331205E47B007A0079251250
:0B074100064E7FE87E0312071380EBDA
:03002300020003D5
:10000300C0E0C0D0309813C298859930E530B43140
:0F00130002D2A2E530B43002C2A2D0D0D0E03287
:1007660053877F759850759CFD438E04438E0143D5
:090776008E10D2AFD28ED299226E
:100433007F507EC312074C7BFF7A037982120088B8
:100443007FF47E0112074C7BFF7A037990120088B8
:100453007FF47E0112074C7BFF7A03799E1200889A
:100463007FF47E0112074C7BFF7A0379AB1200887D
:100473007FF47E0112074C7BFF7A0379B812008860
:100483007FF47E0112074C7BFF7A0379C712008841
:100493007FF47E0112074C7BFF7A0379D512008823
:1004A3007FF47E0112074C7BFF7A0379E112008807
:1004B3007F987E3A12074C7BFF7A04790A120088F0
:0704C3007FD07E0702074C09
:06064E008B088A09890AED
:100654007BFF7A0479191200887FF47E0112074C1B
:10066400E4F50BAB08AA09A90A850B82758300126D
:1006740004CAF50F7BFF7A047926120088050BE57E
:100684000BC3940840DD7BFF7A04792C1200887F29
:0F069400E87E0312074C7BFF7A04792F0200885F
:1006A300E4F508752E0220A107AF2E052EEF70F694
:1006B300120799120799120799E4F53230A10375CD
:1006C3003201752E0230A107AF2E052EEF70F6E52D
:1006D3002E64016013E53825E0F538E5324238052C
:0806E30008E508C3940840BBC0
:0106EB0022EC
:1005E400C2ACC2A112077FD2A1120799120799D2F5
:1005F400A120A153752E0220A107AF2E052EEF7066
:10060400F6752E0230A107AF2E052EEF70F61206F6
:10061400A38538351206A38538361206A3853824F7
:100624001206A385382D1206A3853831D2A1E524FC
:10063400252D25352536F532B5310C8535288536F9
:0A0644002985242A852D2BD2AC2233
:10071300EF1F70011E144E60147C027D58D3ED94BC
:0D07230000EC940040EAED1D70F31C80F026
:0107300022A6
:070799000000007F18DFFEE5
:0107A0002236
:0E077F0000007F017EC27D9FDDFEDEFCDFFA02
:01078D002249
:10074C00EF1FAA0670011E4A600F7D66EDD3940060
:09075C0040EE7C03DCFE1D80F37D
:010765002271
:030000000205589E
:0C055800787FE4F6D8FD75813802059F1D
:1004CA00BB010CE58229F582E5833AF583E02250E7
:1004DA0006E92582F8E622BBFE06E92582F8E22231
:0D04EA00E58229F582E5833AF583E493224B
:10002600E51B240FF8E6051B22780C300702780F33
:10003600E475F0011205220204F72000EB7F2ED2B0
:10004600008018EF540F2490D43440D4FF30040BB2
:10005600EF24BFB41A0050032461FFE51C600215AB
:100066001C051FE51F7002051E30070D780CE47590
:10007600F001120522EF0205100206EC7403D20706
:100086008003E4C207F51B8B0C8A0D890EE4F51C70
:10009600F51EF51FE51C60077F2012006180F575CF
:1000A6001DFFC201C200C202C203C205C206C208C7
:1000B60012002FFF700D3007057F00120072AF1F70
:1000C600AE1E22B4255FC2D5C20412002FFF24D073
:1000D600B40A00501A75F00A781C30D50508B6FF28
:1000E6000106C6A426F620D5047002D20380D924C0
:1000F600CFB41A00EF5004C2E5D204020272D20154
:1001060080C6D20080C0D20280BCD2D580BAD205C9
:1001160080B47F201200612002077401B51C0040E4
:10012600F1120026FF12006102009AD208D2068060
:1001360095120026FB120026FA120026F94A4B7089
:100146000679437A037BFF20022EE51C602A7E0097
:100156008E827583001204CA60060EEE651D70F06D
:10016600C2D5EBC0E0EAC0E0E9C0E0EE1202B9D0C9
:10017600E0F9D0E0FAD0E0FB1204F7FF60AAEBC08A
:10018600E0EAC0E0E9C0E0120061D0E02401F9D065
:10019600E03400FAD0E0FBE51D0460DCD51DD98013
:1001A600877BFF7A0279B5D202809C79108002792A
:1001B60008C206C2088008D2D5790A8004790AC224
:1001C600D5E51D047002F51DE4FAFDFEFF120026BA
:1001D600FC7B08200113120026FD7B1030000A125A
:1001E6000026FE120026FF7B20EC3382D592D550E6
:1001F60013C3E43000069FFFE49EFEE42001039D46
:10020600FDE49CFCE4CBF8C201EC700CCFCECDCC67
:10021600E824F8F870F38017C3EF33FFEE33FEEDF2
:1002260033FDEC33FCEB33FB994002FB0FD8E9EBD3
:10023600300105F8D0E0C448B201C0E00AEC4D4EEA
:100246004F78207B0070C2EAB51D0040BCC0E012AA
:1002560002BBD0F0D0E0200104C4C0E0C4B201C0AB
:10026600F012004AD0F0D5F0EB02009A12053201E6
:10027600375301B15801084C01044201B54F01BD85
:0F0286004401BD49011D4301C35501A74601A70E
:100295004501A747036350010C2D01102E01332B97
:1002A500011423013120034C2A00CC480000012B06
:1002B5003F3F3F00790AA2D5200314300509B91044
:1002C500020404B9080104A2D52006025001042045
:1002D50002689202B51C005034C0E07F203003193B
:1002E5007F30A20272067205500F120312C202C2BB
:1002F50006C205C2087F30800F300503E9C0E01251
:100305000061300503D0E0F9D0E0B51CCC3005170D
:100315007F30B9100C1200617F583004077F788058
:1003250003B908031200613002057F2D0200617FC9
:10033500202008F87F2B2006F322920280CF286E1A
:10034500756C6C2900D2011200263001F8C20178C3
:100355001C30D50108F60200CC2D50434958120037
:10036500262403B405004001E490035E9312005275
:0D037500743A120052D203751C040201B14B
:10056400020731E493A3F8E493A34003F68001F275
:1005740008DFF48029E493A3F85407240CC8C33398
:10058400C4540F4420C8834004F456800146F6DF67
:10059400E4800B010204081020408090078EE47E62
:1005A400019360BCA3FF543F30E509541FFEE4935C
:1005B400A360010ECF54C025E060A840B8E493A323
:1005C400FAE493A3F8E493A3C8C582C8CAC583CA4E
:1005D400F0A3C8C582C8CAC583CADFE9DEE780BE06
:010798000060
:1004F700BB010689828A83E0225002E722BBFE0203
:09050700E32289828A83E4932235
:10051000BB010689828A83F0225002F722BBFE01CA
:02052000F322C4
:10052200FAE6FB0808E6F925F0F618E6CA3AF622DA
:10053200D083D082F8E4937012740193700DA3A358
:1005420093F8740193F5828883E47374029368606C
:06055200EFA3A3A380DF6C
:1006EC00EFB40A07740D1206F7740A309811A89922
:1006FC00B8130CC2983098FDA899C298B811F6306E
:07070C0099FDC299F5992245
:00000001FF
